:100000000C9463000C948B000C948B000C940103F3
:100010000C9401030C9401030C948B000C948B0042
:100020000C948B000C948B000C948B000C948B0024
:100030000C948B000C948B000C948B000C948B0014
:100040000C94B7020C948B000C948B000C948B00D6
:100050000C948B000C948B000C948B000C948B00F4
:100060000C948B000C948B000000000023002600F1
:10007000290000000000240027002A0000000000E2
:10008000250028002B0004040404040404040202D4
:100090000202020203030303030301020408102007
:1000A0004080010204081020010204081020000012
:1000B0000008000201000003040700000000000027
:1000C0000000D605990611241FBECFEFD8E0DEBF91
:1000D000CDBF11E0A0E0B1E0E8E9F3E102C0059096
:1000E0000D92A232B107D9F721E0A2E2B1E001C03E
:1000F0001D92A339B207E1F710E0C2E6D0E004C0D8
:100100002197FE010E94B909C136D107C9F70E94A3
:10011000C5030C94BF090C940000AF92BF92CF921C
:10012000DF92EF92FF920F931F93CF93DF936C01B7
:100130007B018B01040F151FEB015E01AE18BF0898
:10014000C017D10759F06991D601ED91FC9101904A
:10015000F081E02DC6010995892B79F7C501DF9162
:10016000CF911F910F91FF90EF90DF90CF90BF90B4
:10017000AF900895806480937C0080917A008064C1
:1001800080937A0080917A0086FDFCCF8091780080
:100190009091790008953FB7F89480916B01909108
:1001A0006C01A0916D01B0916E0126B5A89B05C0B0
:1001B0002F3F19F00196A11DB11D3FBFBA2FA92FE6
:1001C000982F8827BC01CD01620F711D811D911DE3
:1001D00042E0660F771F881F991F4A95D1F708954F
:1001E0008F929F92AF92BF92CF92DF92EF92FF9247
:1001F0006B017C010E94CB004B015C01C114D10456
:10020000E104F104B9F00E94CB00681979098A0968
:100210009B09683E73408105910580F321E0C21A75
:10022000D108E108F10888EE880E83E0981EA11C31
:10023000B11CE4CFFF90EF90DF90CF90BF90AF90D4
:100240009F908F9008952091640130916501281747
:10025000390771F49091630180916201981741F020
:10026000E0916301F0E0EE5DFE4F808190E0089543
:100270008FEF9FEF08950895EF92FF920F931F93D2
:10028000CF93DF93DC015C96ED90FC905D97E114D9
:10029000F10479F481E090E013969C938E93129789
:1002A00090E080E0DF91CF911F910F91FF90EF9050
:1002B00008955196ED91FC91529750968C915097DC
:1002C000982F90950FB75E962C915E97122F127013
:1002D00021FD6095F8942081112319F1282B2083AA
:1002E000E7012197F1F728E0462F50E0308160FFC9
:1002F0001AC0382B3083E7012197F1F7BA017595C1
:100300006795215089F7112381F0808189238083AB
:100310000FBF5C968D919C910197F1F781E090E081
:10032000C1CF2923DCCF3923E5CF9081892BEFCFB3
:1003300002960C943C0120916401309165012817CC
:10034000390771F4809162012091630190E0805C33
:100350009F4F821B910960E470E00E948A09089512
:1003600090E080E0089520916401309165012817A4
:100370003907B9F49091630180916201981789F06F
:10038000E0916301F0E0EE5DFE4F8081209163011A
:1003900030E02F5F3F4F2F7333272093630190E0AE
:1003A00008958FEF9FEF089590E080E00895CF9239
:1003B000DF92EF92FF920F931F93CF93DF938B0106
:1003C0006A01EB0102967C01CE01801B910B8C151A
:1003D0009D052CF46991C7010E943C01F5CFDF9186
:1003E000CF911F910F91FF90EF90DF90CF900895E4
:1003F0001F93CF93DF93CDB7DEB72B970FB6F8944B
:10040000DEBF0FBECDBF182F106B612F84E791E0C8
:100410000E943C0160E584E791E00E943C0163E0BA
:1004200084E791E00E943C01612F84E791E00E9403
:100430003C016BE584E791E00E943C0160E484E7C5
:1004400091E00E943C01FE01339689E0DF011D929C
:100450008A95E9F780EF898381E48A8382E48C833B
:1004600082E18D8380E48E8381E08F8385E38887BA
:1004700087EF8B8789E189874BE050E0BE016F5F92
:100480007F4F82E791E00E94D7012B960FB6F89438
:10049000DEBF0FBECDBFDF91CF911F910895CF93E7
:1004A000DF9300D01F92CDB7DEB79AE09A83806BBE
:1004B00089836B8343E050E0BE016F5F7F4F82E72B
:1004C00091E00E94D7010F900F900F90DF91CF9194
:1004D0000895CF93DF9300D01F92CDB7DEB797E09A
:1004E0009A83806B898382E18B8343E050E0BE0175
:1004F0006F5F7F4F82E791E00E94D7010F900F90CE
:100500000F90DF91CF910895CF93DF9300D01F928A
:10051000CDB7DEB71B829BE79A83806B898343E06C
:1005200050E0BE016F5F7F4F82E791E00E94D701EC
:100530000F900F900F90DF91CF910895CF93DF939D
:1005400000D01F92CDB7DEB7806989836A834B8361
:1005500043E050E0BE016F5F7F4F82E791E00E9471
:10056000D7010F900F900F90DF91CF9108951F92B8
:100570000F920FB60F9211242F933F938F939F9357
:10058000AF93BF938091670190916801A091690139
:10059000B0916A013091660123E0230F2D3758F5A1
:1005A0000196A11DB11D2093660180936701909370
:1005B0006801A0936901B0936A0180916B019091E9
:1005C0006C01A0916D01B0916E010196A11DB11D4C
:1005D00080936B0190936C01A0936D01B0936E01B9
:1005E000BF91AF919F918F913F912F910F900FBE2F
:1005F0000F901F90189526E8230F0296A11DB11D9C
:10060000D2CF1F920F920FB60F9211242F933F93C8
:100610004F935F936F937F938F939F93AF93BF930A
:10062000EF93FF93E0916401F0916501309749F0F9
:10063000A685B7858585968D91FF14C09C918923E9
:10064000A1F4FF91EF91BF91AF919F918F917F9115
:100650006F915F914F913F912F910F900FBE0F902F
:100660001F9018959C91892361F7A389B4899C9167
:100670008589809589238C93868997890197F1F7DD
:10068000608D718DA685B785558538E020E0CB015A
:100690000197F1F7822F90E095958795282F4C913F
:1006A000452309F02068315091F7868D81FD209512
:1006B0008091620190E001968F73992730916301D8
:1006C000381799F0A0916201B0E0AE5DBE4F2C9357
:1006D00080936201828D938D0197F1F7A389B4898C
:1006E0008C919589892B8C93ACCF868D8160868F78
:1006F000F1CF90E0FC01E255FF4F2491FC01E6565A
:10070000FF4F3491FC01EA57FF4FE491EE23C9F00B
:10071000222339F0233001F1A8F4213019F12230DD
:1007200029F1F0E0EE0FFF1FE458FF4FA591B491BF
:100730008FB7F894EC91611126C030953E233C931D
:100740008FBF08952730A9F02830C9F0243049F729
:10075000809180008F7D03C0809180008F7780938F
:100760008000DFCF84B58F7784BDDBCF84B58F7DEC
:10077000FBCF8091B0008F778093B000D2CF809173
:10078000B0008F7DF9CF3E2BDACFCF93DF93CDB77B
:10079000DEB729970FB6F894DEBF0FBECDBF7894B1
:1007A00084B5826084BD84B5816084BD85B5826076
:1007B00085BD85B5816085BD80916E008160809327
:1007C0006E00109281008091810082608093810090
:1007D00080918100816080938100809180008160A0
:1007E000809380008091B10084608093B1008091FB
:1007F000B00081608093B00080917A008460809323
:100800007A0080917A00826080937A0080917A00E9
:10081000816080937A0080917A00806880937A006A
:100820001092C1006FEF84E791E00E943C0180E0EC
:100830000E94690281E00E94690282E00E946902CE
:1008400083E00E94690289E00E94690260E270E030
:1008500090E080E00E944F0260E570E081E090E06F
:100860000E944F0260E370E082E090E00E944F023D
:1008700060E670E083E090E00E944F0280E00E941A
:10088000F80181E00E94F80182E00E94F80183E013
:100890000E94F80144E0242E312C50E3C52ED12CC7
:1008A00083E00E94BA0040900001509001016090E6
:1008B00002017090030124E233E1DC010E949E09F1
:1008C0002FEF33E040E050E00E941707CA01B90162
:1008D000685477478F4F9F4F0E94910820E030E483
:1008E0004CE156E40E94E707A30192010E941D0912
:1008F0004B015C01A301920160E070E080E89FE39E
:100900000E947A079B01AC01C501B4010E941D0938
:100910002B013C01409200015092010160920201C2
:100920007092030120E030E040E053E40E941D0992
:100930000E946008E62E6093710180E00E94BA0078
:10094000F12C8E9D50018F9DB00C9E9DB00C1124FA
:1009500080E00E94BA00BC01C5010E948A0977FFAD
:1009600002C06F5F7F4FCB019595879564E570E07E
:100970000E948A0918E1180F81E00E94BA00E89EDF
:100980005001E99EB00CF89EB00C112481E00E9449
:10099000BA00BC01C5010E948A0977FF02C06F5FDF
:1009A0007F4FCB019595879568E470E00E948A0996
:1009B00004E2080F212F202730E0A0E3B0E00E94DE
:1009C0006B072FE730E040E050E00E941707DA01A4
:1009D000C9018496A11DB11D8E839F83A887B98705
:1009E000212F202330E0A0E3B0E00E946B072FE727
:1009F00030E040E050E00E94170749015A0198E1B9
:100A0000890E911CA11CB11C84E00E94BA00BC019B
:100A1000990F880B990B0E949108A30192010E94E3
:100A20001D090E9459089B01AC01AEE2B0E00E9492
:100A300036072FEF33E040E050E00E94170729010E
:100A40003A01A3E24A0E511C611C711C82E00E9413
:100A5000BA00E89E9001E99E300DF89E300D1124F9
:100A60003D832C8382E00E94BA00BC018C819D8171
:100A70000E948A09F62E33E1631301C0F12C0E9413
:100A8000070719821A821B82B1010E948A098F709E
:100A9000E82E806B898343E050E0BE016F5F7F4F9B
:100AA00082E791E00E94D7016E2D606C84E791E0AF
:100AB0000E943C016F2D6F7784E791E00E943C011A
:100AC0000E940707B6010E948A0948E1480F612F7A
:100AD0006F7780E00E949E020E940707B6010E9485
:100AE0008A0948E1480F602F6F7781E00E949E02DB
:100AF0000E940707B6010E948A0948E1480F6E81EB
:100B00006F7782E00E949E020E940707B6010E9452
:100B10008A0948E1480F682D83E00E949E020E94E6
:100B20000707B6010E948A0940E3480F642D6F77DA
:100B300089E00E949E028FE6809370016FE670E06C
:100B400080E090E00E94F00000916F0110E00E94B0
:100B50000707B1010E948A0901960817190771F465
:100B600010926F0180E00E94840281E00E94840262
:100B700082E00E94840283E00E94840280916F01DF
:100B80008F5F80936F016091700170E0660F771F37
:100B9000072E000C880B990B0E94F000A0E0B0E03B
:100BA000AB2B09F47DCE0E9400007ACE0F931F93E9
:100BB000CF93DF938EE191E0909373018093720164
:100BC000109277011092760188EE93E0A0E0B0E0F9
:100BD0008093780190937901A0937A01B0937B017F
:100BE0008CE091E0909375018093740110928B01D9
:100BF00010928A0110928D0110928C0110928F0137
:100C000010928E01109291011092900160919201C8
:100C10006E7F6D7F609392016695617081E06827B9
:100C200084E00E9479034EE950E0FA0164918AE879
:100C300090E0FC012491222399F030E0220F331F31
:100C4000F901EE58FF4FA591B491F901E458FF4F17
:100C5000259134912FB7F8943C91632B6C932FBF5F
:100C6000FA01449140938401FC018491E82FF0E063
:100C7000EE0FFF1FE458FF4F8591949190938601EA
:100C80008093850109E911E0F8012491C5E8D1E0DC
:100C9000FE0184918823C9F090E0880F991FFC0120
:100CA000EE58FF4FA591B491FC01E458FF4F4591D8
:100CB00054913FB7F8949C91822F809598239C93F0
:100CC000FA019081892380833FBF8091920181FD49
:100CD00004C061E08FEF0E9479038FEF8093800161
:100CE000F801049100938101FE01C491EC2FF0E022
:100CF000EE0FFF1FE859FF4F859194919093830168
:100D00008093820110928F0110928E0110928D01BA
:100D100010928C0110928B0110928A018DE790E065
:100D20009093910180939001DF91CF911F910F914A
:100D300008958EE191E090937301809372018CE0AD
:100D400091E090937501809374018091640190917A
:100D500065018457914071F4E0918701F091880119
:100D6000908180918901809589238083109265010B
:100D70001092640108958F929F92AF92BF92CF928A
:100D8000DF92EF92FF92CF93DF93EC01688179813C
:100D90008A819B81611571058105910521F464E2C9
:100DA00079ED8BE597E02DE133EF41E050E00E94D3
:100DB000170749015A019B01AC01A7EAB1E40E945F
:100DC00036076B017C01ACEEB4EFA50194010E94E3
:100DD0004407DC01CB018C0D9D1DAE1DBF1DB7FF6F
:100DE00003C00197A109B04888839983AA83BB8374
:100DF0009F77DF91CF91FF90EF90DF90CF90BF90E2
:100E0000AF909F908F9008950E94BB06089584E054
:100E100091E00E94BB060895B0E0A0E08093040139
:100E200090930501A0930601B09307010895052E44
:100E300097FB1EF400940E942E0757FD07D00E94D6
:100E4000490707FC03D04EF40C942E0750954095AB
:100E5000309521953F4F4F4F5F4F08959095809566
:100E6000709561957F4F8F4F9F4F08950E946B073C
:100E7000A59F900DB49F900DA49F800D911D1124EE
:100E80000895B7FF0C9436070E943607821B930B18
:100E90000895A1E21A2EAA1BBB1BFD010DC0AA1FBB
:100EA000BB1FEE1FFF1FA217B307E407F50720F0D3
:100EB000A21BB30BE40BF50B661F771F881F991F4E
:100EC0001A9469F760957095809590959B01AC0197
:100ED000BD01CF010895A29FB001B39FC001A39FA0
:100EE000700D811D1124911DB29F700D811D112463
:100EF000911D08955058BB27AA270E9492070C9471
:100F0000E3080E94D50838F00E94DC0820F039F48C
:100F10009F3F19F426F40C94D2080EF4E095E7FBF9
:100F20000C94CC08E92F0E94F40858F3BA17620712
:100F300073078407950720F079F4A6F50C94160939
:100F40000EF4E0950B2EBA2FA02D0B01B9019001E4
:100F50000C01CA01A0011124FF27591B99F0593F28
:100F600050F4503E68F11A16F040A22F232F342F70
:100F70004427585FF3CF469537952795A795F040BE
:100F80005395C9F77EF41F16BA0B620B730B840BD3
:100F9000BAF09150A1F0FF0FBB1F661F771F881F8B
:100FA000C2F70EC0BA0F621F731F841F48F48795E3
:100FB00077956795B795F7959E3F08F0B0CF9395D5
:100FC000880F08F09927EE0F9795879508950E944E
:100FD000FB070C94E3080E94DC0858F00E94D50837
:100FE00040F029F45F3F29F00C94CC0851110C9487
:100FF00017090C94D2080E94F40868F39923B1F3FE
:10100000552391F3951B550BBB27AA27621773072E
:10101000840738F09F5F5F4F220F331F441FAA1FC2
:10102000A9F335D00E2E3AF0E0E832D0915050407E
:10103000E695001CCAF72BD0FE2F29D0660F771F2C
:10104000881FBB1F261737074807AB07B0E809F012
:10105000BB0B802DBF01FF2793585F4F3AF09E3F97
:10106000510578F00C94CC080C9417095F3FE4F319
:10107000983ED4F3869577956795B795F7959F5FDA
:10108000C9F7880F911D9695879597F90895E1E026
:10109000660F771F881FBB1F621773078407BA0785
:1010A00020F0621B730B840BBA0BEE1F88F7E095E0
:1010B00008950E9460086894B1110C94170908956E
:1010C0000E94FC0888F09F5798F0B92F9927B751D4
:1010D000B0F0E1F0660F771F881F991F1AF0BA95DC
:1010E000C9F714C0B13091F00E941609B1E008951B
:1010F0000C941609672F782F8827B85F39F0B93F0D
:10110000CCF3869577956795B395D9F73EF490958E
:101110008095709561957F4F8F4F9F4F0895E8940C
:1011200009C097FB3EF490958095709561957F4F2F
:101130008F4F9F4F9923A9F0F92F96E9BB279395DD
:10114000F695879577956795B795F111F8CFFAF4ED
:10115000BB0F11F460FF1BC06F5F7F4F8F4F9F4F1E
:1011600016C0882311F096E911C0772321F09EE87C
:10117000872F762F05C0662371F096E8862F70E0E2
:1011800060E02AF09A95660F771F881FDAF7880FBC
:101190009695879597F9089597F99F6780E870E08D
:1011A00060E008959FEF80EC089500240A941616DD
:1011B000170618060906089500240A941216130645
:1011C000140605060895092E0394000C11F48823D3
:1011D00052F0BB0F40F4BF2B11F460FF04C06F5FEF
:1011E0007F4F8F4F9F4F089557FD9058440F551FC5
:1011F00059F05F3F71F04795880F97FB991F61F099
:101200009F3F79F087950895121613061406551F0F
:10121000F2CF4695F1DF08C0161617061806991F7B
:10122000F1CF86957105610508940895E894BB2770
:1012300066277727CB0197F908950E9430090C940F
:10124000E3080E94D50838F00E94DC0820F09523BE
:1012500011F00C94CC080C94D20811240C941709AA
:101260000E94F40870F3959FC1F3950F50E0551F4D
:10127000629FF001729FBB27F00DB11D639FAA27EB
:10128000F00DB11DAA1F649F6627B00DA11D661F3A
:10129000829F2227B00DA11D621F739FB00DA11D5B
:1012A000621F839FA00D611D221F749F3327A00D15
:1012B000611D231F849F600D211D822F762F6A2FB1
:1012C00011249F5750409AF0F1F088234AF0EE0F16
:1012D000FF1FBB1F661F771F881F91505040A9F743
:1012E0009E3F510580F00C94CC080C9417095F3F89
:1012F000E4F3983ED4F3869577956795B795F7957F
:10130000E7959F5FC1F7FE2B880F911D96958795F6
:1013100097F9089597FB072E16F4009407D077FDF0
:1013200009D00E94A50907FC05D03EF4909581954F
:101330009F4F0895709561957F4F08950E946B07A8
:10134000B7FF0895821B930B0895AA1BBB1B51E1A5
:1013500007C0AA1FBB1FA617B70710F0A61BB70B25
:10136000881F991F5A95A9F780959095BC01CD01CA
:101370000895EE0FFF1F0590F491E02D099410E001
:10138000C2E6D0E004C0FE010E94B9092196C3362E
:08139000D107C9F7F894FFCF63
:10139800CDCC4C3E01000000000000003C018D0057
:1013A800D4013B019B01B301230100000000980117
:0213B800D7015B
:00000001FF
