:100000000C9463000C948B000C948B000C944202B3
:100010000C9442020C9442020C948B000C948B00C2
:100020000C948B000C948B000C948B000C948B0024
:100030000C948B000C948B000C948B000C948B0014
:100040000C94F8010C948B000C948B000C948B0096
:100050000C948B000C948B000C948B000C948B00F4
:100060000C948B000C948B000000000023002600F1
:10007000290000000000240027002A0000000000E2
:10008000250028002B0004040404040404040202D4
:100090000202020203030303030301020408102007
:1000A0004080010204081020010204081020000012
:1000B0000008000201000003040700000000000027
:1000C0000000AE04710511241FBECFEFD8E0DEBFE3
:1000D000CDBF11E0A0E0B1E0ECE6F0E102C0059098
:1000E0000D92AE31B107D9F721E0AEE1B1E001C028
:1000F0001D92AF38B207E1F710E0C2E6D0E004C0CD
:100100002197FE010E942308C136D107C9F70E943A
:1001100006030C9429080C940000AF92BF92CF9272
:10012000DF92EF92FF920F931F93CF93DF936C01B7
:100130007B018B01040F151FEB015E01AE18BF0898
:10014000C017D10759F06991D601ED91FC9101904A
:10015000F081E02DC6010995892B79F7C501DF9162
:10016000CF911F910F91FF90EF90DF90CF90BF90B4
:10017000AF900895806480937C0080917A008064C1
:1001800080937A0080917A0086FDFCCF8091780080
:100190009091790008953FB7F8948091670190910C
:1001A0006801A0916901B0916A0126B5A89B05C0BC
:1001B0002F3F19F00196A11DB11D3FBFBA2FA92FE6
:1001C000982F8827BC01CD01620F711D811D911DE3
:1001D00042E0660F771F881F991F4A95D1F708954F
:1001E0008F929F92AF92BF92CF92DF92EF92FF9247
:1001F0006B017C010E94CB004B015C01C114D10456
:10020000E104F104B9F00E94CB00681979098A0968
:100210009B09683E73408105910580F321E0C21A75
:10022000D108E108F10888EE880E83E0981EA11C31
:10023000B11CE4CFFF90EF90DF90CF90BF90AF90D4
:100240009F908F900895209160013091610128174F
:10025000390771F490915F0180915E01981741F028
:10026000E0915F01F0E0E25EFE4F808190E0089552
:100270008FEF9FEF08950895EF92FF920F931F93D2
:10028000CF93DF93DC015C96ED90FC905D97E114D9
:10029000F10479F481E090E013969C938E93129789
:1002A00090E080E0DF91CF911F910F91FF90EF9050
:1002B00008955196ED91FC91529750968C915097DC
:1002C000982F90950FB75E962C915E97122F127013
:1002D00021FD6095F8942081112319F1282B2083AA
:1002E000E7012197F1F728E0462F50E0308160FFC9
:1002F0001AC0382B3083E7012197F1F7BA017595C1
:100300006795215089F7112381F0808189238083AB
:100310000FBF5C968D919C910197F1F781E090E081
:10032000C1CF2923DCCF3923E5CF9081892BEFCFB3
:1003300002960C943C0120916001309161012817D4
:10034000390771F480915E0120915F0190E0805C3B
:100350009F4F821B910960E470E00E94EC070895B2
:1003600090E080E0089520916001309161012817AC
:100370003907B9F490915F0180915E01981789F077
:10038000E0915F01F0E0E25EFE4F808120915F012D
:1003900030E02F5F3F4F2F73332720935F0190E0B2
:1003A00008958FEF9FEF089590E080E00895CF9239
:1003B000DF92EF92FF920F931F93CF93DF938B0106
:1003C0006A01EB0102967C01CE01801B910B8C151A
:1003D0009D052CF46991C7010E943C01F5CFDF9186
:1003E000CF911F910F91FF90EF90DF90CF900895E4
:1003F0001F920F920FB60F9211242F933F938F935A
:100400009F93AF93BF938091630190916401A091FA
:100410006501B09166013091620123E0230F2D3711
:1004200058F50196A11DB11D2093620180936301CF
:1004300090936401A0936501B09366018091670178
:1004400090916801A0916901B0916A010196A11D86
:10045000B11D8093670190936801A0936901B093E7
:100460006A01BF91AF919F918F913F912F910F9012
:100470000FBE0F901F90189526E8230F0296A11D1E
:10048000B11DD2CF1F920F920FB60F9211242F934E
:100490003F934F935F936F937F938F939F93AF930C
:1004A000BF93EF93FF93E0916001F091610130976A
:1004B00049F0A685B7858585968D91FF14C09C91DE
:1004C0008923A1F4FF91EF91BF91AF919F918F91FB
:1004D0007F916F915F914F913F912F910F900FBE40
:1004E0000F901F9018959C91892361F7A389B48977
:1004F0009C918589809589238C938689978901971A
:10050000F1F7608D718DA685B785558538E020E0BF
:10051000CB010197F1F7822F90E095958795282FD1
:100520004C91452309F02068315091F7868D81FD6B
:10053000209580915E0190E001968F73992730910C
:100540005F01381799F0A0915E01B0E0A25EBE4F46
:100550002C9380935E01828D938D0197F1F7A3898F
:10056000B4898C919589892B8C93ACCF868D8160D1
:10057000868FF1CF90E0FC01E255FF4F2491FC0102
:10058000E656FF4F3491FC01EA57FF4FE491EE230A
:10059000C9F0222339F0233001F1A8F4213019F1F8
:1005A000223029F1F0E0EE0FFF1FE458FF4FA59134
:1005B000B4918FB7F894EC91611126C030953E2329
:1005C0003C938FBF08952730A9F02830C9F024301C
:1005D00049F7809180008F7D03C0809180008F77E4
:1005E00080938000DFCF84B58F7784BDDBCF84B567
:1005F0008F7DFBCF8091B0008F778093B000D2CFFA
:100600008091B0008F7DF9CF3E2BDACFCF93DF936F
:10061000CDB7DEB72B970FB6F894DEBF0FBECDBFB8
:10062000789484B5826084BD84B5816084BD85B5CD
:10063000826085BD85B5816085BD80916E008160D9
:1006400080936E001092810080918100826080937F
:100650008100809181008160809381008091800081
:100660008160809380008091B10084608093B100AC
:100670008091B00081608093B00080917A008460A6
:1006800080937A0080917A00826080937A008091D2
:100690007A00816080937A0080917A0080688093EC
:1006A0007A001092C1006FEF8EE691E00E943C014B
:1006B00087E08A8380EB898312E11B8343E050E06B
:1006C000BE016F5F7F4F8CE691E00E94D70160EB27
:1006D0008EE691E00E943C0160E58EE691E00E948A
:1006E0003C0167E08EE691E00E943C0160EB8EE603
:1006F00091E00E943C016BE58EE691E00E943C0196
:1007000064E68EE691E00E943C01FE01339689E0AA
:10071000DF011D928A95E9F780EF898381E48A835E
:1007200082E48C831D8380E48E8381E08F8385E364
:10073000888787EF8B8784E689874BE050E0BE018E
:100740006F5F7F4F8CE691E00E94D70188248A94E6
:1007500083E0982EA12CB12C90EB792E20E8622E0C
:1007600082E00E94BA002090000130900101409088
:1007700002015090030124E233E1DC010E940808E9
:10078000A50194010E949305CA01B90168547747F5
:100790008F4F9F4F0E94F30620E030E44CE156E477
:1007A0000E945006A20191010E947F076B017C010B
:1007B000A201910160E070E080E89FE30E94E30500
:1007C0009B01AC01C701B6010E947F076093000145
:1007D00070930101809302019093030120E030E0C7
:1007E00040E053E40E947F070E94C206562E6093A9
:1007F0008E0181E00E94BA00052D10E0809F60010B
:10080000819FD00C909FD00C112481E00E94BA00EF
:10081000BC01C6010E94EC07633109F49CC06093DF
:100820008D0180918D01D82EE894D7F819821A8213
:100830001B82798243E050E0BE016F5F7F4F8CE600
:1008400091E00E94D70160EC8EE691E00E943C01AD
:100850006D2D8EE691E00E943C015694BAE0BA8379
:100860007982852D90E080968F7799278B8343E05E
:1008700050E0BE016F5F7F4F8CE691E00E94D70190
:1008800080E00E94BA00089F6001099FD00C189F69
:10089000D00C112480E00E94BA00BC0180E9898359
:1008A000C6010E94EC076C5D6F776A8380E2850D5C
:1008B0008F778B8343E050E0BE016F5F7F4F8CE604
:1008C00091E00E94D70183E00E94BA009C01A2E956
:1008D000BFEF0E940008A50194010E949305DA0170
:1008E000C90181599F4FAF4FBF4F80936B011C01CE
:1008F0002D01332444245524C201B1010E94F0008B
:1009000080E00E94BA00089F6001099FD00C189FE8
:10091000D00C112480E00E94BA00BC011B826982C5
:10092000C6010E94EC076C5D6F776A8343E050E07C
:10093000BE016F5F7F4F8CE691E00E94D701C2013C
:10094000B1010E94F000A0E0B0E0AB2B09F408CFA9
:100950000E94000005CF10928D0163CF0F931F936B
:10096000CF93DF938AE191E090936D0180936C01C6
:10097000109271011092700188EE93E0A0E0B0E057
:100980008093720190937301A0937401B0937501E9
:1009900088E091E090936F0180936E011092850141
:1009A00010928401109287011092860110928901A1
:1009B0001092880110928B0110928A0160918C0133
:1009C0006E7F6D7F60938C016695617081E0682712
:1009D00084E00E94BA024EE950E0FA0164918AE88C
:1009E00090E0FC012491222399F030E0220F331F84
:1009F000F901EE58FF4FA591B491F901E458FF4F6A
:100A0000259134912FB7F8943C91632B6C932FBFB1
:100A1000FA01449140937E01FC018491E82FF0E0BB
:100A2000EE0FFF1FE458FF4F859194919093800142
:100A300080937F0109E911E0F8012491C5E8D1E034
:100A4000FE0184918823C9F090E0880F991FFC0172
:100A5000EE58FF4FA591B491FC01E458FF4F45912A
:100A600054913FB7F8949C91822F809598239C9342
:100A7000FA019081892380833FBF80918C0181FDA1
:100A800004C061E08FEF0E94BA028FEF80937A0179
:100A9000F801049100937B01FE01C491EC2FF0E07A
:100AA000EE0FFF1FE859FF4F8591949190937D01C0
:100AB00080937C0110928901109288011092870125
:100AC0001092860110928501109284018DE790E0CA
:100AD00090938B0180938A01DF91CF911F910F91A9
:100AE00008958AE191E090936D0180936C0188E014
:100AF00091E090936F0180936E01809160019091DD
:100B000061018E56914071F4E0918101F091820172
:100B10009081809183018095892380831092610167
:100B2000109260010895052E97FB1EF400940E9418
:100B3000AA0557FD07D00E94B20507FC03D04EF46A
:100B40000C94AA0550954095309521953F4F4F4FF5
:100B50005F4F089590958095709561957F4F8F4F69
:100B60009F4F0895A1E21A2EAA1BBB1BFD010DC0C9
:100B7000AA1FBB1FEE1FFF1FA217B307E407F5074D
:100B800020F0A21BB30BE40BF50B661F771F881F29
:100B9000991F1A9469F760957095809590959B01BF
:100BA000AC01BD01CF010895A29FB001B39FC00168
:100BB000A39F700D811D1124911DB29F700D811D89
:100BC0001124911D08955058BB27AA270E94FB05A8
:100BD0000C9445070E94370738F00E943E0720F02A
:100BE00039F49F3F19F426F40C9434070EF4E09581
:100BF000E7FB0C942E07E92F0E94560758F3BA170B
:100C0000620773078407950720F079F4A6F50C9422
:100C100078070EF4E0950B2EBA2FA02D0B01B90129
:100C200090010C01CA01A0011124FF27591B99F062
:100C3000593F50F4503E68F11A16F040A22F232F6E
:100C4000342F4427585FF3CF469537952795A795BE
:100C5000F0405395C9F77EF41F16BA0B620B730B65
:100C6000840BBAF09150A1F0FF0FBB1F661F771FD6
:100C7000881FC2F70EC0BA0F621F731F841F48F48B
:100C8000879577956795B795F7959E3F08F0B0CF14
:100C90009395880F08F09927EE0F979587950895FB
:100CA0000E9464060C9445070E943E0758F00E947B
:100CB000370740F029F45F3F29F00C942E075111BB
:100CC0000C9479070C9434070E94560768F3992313
:100CD000B1F3552391F3951B550BBB27AA27621738
:100CE0007307840738F09F5F5F4F220F331F441F45
:100CF000AA1FA9F335D00E2E3AF0E0E832D0915079
:100D00005040E695001CCAF72BD0FE2F29D0660F65
:100D1000771F881FBB1F261737074807AB07B0E8A8
:100D200009F0BB0B802DBF01FF2793585F4F3AF0AE
:100D30009E3F510578F00C942E070C9479075F3F85
:100D4000E4F3983ED4F3869577956795B795F79534
:100D50009F5FC9F7880F911D9695879597F908951C
:100D6000E1E0660F771F881FBB1F621773078407B8
:100D7000BA0720F0621B730B840BBA0BEE1F88F7C7
:100D8000E09508950E945E0788F09F5798F0B92F6C
:100D90009927B751B0F0E1F0660F771F881F991FB0
:100DA0001AF0BA95C9F714C0B13091F00E947807D3
:100DB000B1E008950C947807672F782F8827B85FE3
:100DC00039F0B93FCCF3869577956795B395D9F708
:100DD0003EF490958095709561957F4F8F4F9F4F12
:100DE0000895E89409C097FB3EF49095809570951E
:100DF00061957F4F8F4F9F4F9923A9F0F92F96E967
:100E0000BB279395F695879577956795B795F111DB
:100E1000F8CFFAF4BB0F11F460FF1BC06F5F7F4F78
:100E20008F4F9F4F16C0882311F096E911C077238A
:100E300021F09EE8872F762F05C0662371F096E893
:100E4000862F70E060E02AF09A95660F771F881F62
:100E5000DAF7880F9695879597F9089597F99F6720
:100E600080E870E060E008959FEF80EC0895002432
:100E70000A941616170618060906089500240A94FF
:100E800012161306140605060895092E0394000C85
:100E900011F4882352F0BB0F40F4BF2B11F460FF14
:100EA00004C06F5F7F4F8F4F9F4F089557FD90583D
:100EB000440F551F59F05F3F71F04795880F97FB1E
:100EC000991F61F09F3F79F08795089512161306D8
:100ED0001406551FF2CF4695F1DF08C01616170607
:100EE0001806991FF1CF869571056105089408953C
:100EF000E894BB2766277727CB0197F908950E94CE
:100F000092070C9445070E94370738F00E943E076D
:100F100020F0952311F00C942E070C943407112423
:100F20000C9479070E94560770F3959FC1F3950FB3
:100F300050E0551F629FF001729FBB27F00DB11D5D
:100F4000639FAA27F00DB11DAA1F649F6627B00DED
:100F5000A11D661F829F2227B00DA11D621F739FD6
:100F6000B00DA11D621F839FA00D611D221F749FE4
:100F70003327A00D611D231F849F600D211D822F2B
:100F8000762F6A2F11249F5750409AF0F1F0882352
:100F90004AF0EE0FFF1FBB1F661F771F881F91507F
:100FA0005040A9F79E3F510580F00C942E070C94F9
:100FB00079075F3FE4F3983ED4F38695779567957C
:100FC000B795F795E7959F5FC1F7FE2B880F911DA9
:100FD0009695879597F9089597FB072E16F4009438
:100FE00007D077FD09D00E940F0807FC05D03EF41A
:100FF000909581959F4F0895709561957F4F0895C5
:101000000E94D405332312F48A1B9B0B0C940A080C
:101010000E94D405B7FF0895821B930B0895AA1B65
:10102000BB1B51E107C0AA1FBB1FA617B70710F0D3
:10103000A61BB70B881F991F5A95A9F78095909505
:10104000BC01CD010895EE0FFF1F0590F491E02D36
:10105000099410E0C2E6D0E004C0FE010E9423081B
:0C1060002196C336D107C9F7F894FFCFE2
:10106C00CDCC4C3E000000003C018D00D4013B0176
:0E107C009B01B3012301000000009801D70181
:00000001FF
